{
  "_format": "hh-sol-artifact-1",
  "contractName": "PredictionMarketDAO",
  "sourceName": "contracts/PredictionMarket.sol",
  "abi": [
    {
      "inputs": [
        {
          "internalType": "uint256",
          "name": "initialSupply",
          "type": "uint256"
        }
      ],
      "stateMutability": "nonpayable",
      "type": "constructor"
    },
    {
      "inputs": [
        {
          "internalType": "uint256",
          "name": "",
          "type": "uint256"
        },
        {
          "internalType": "address",
          "name": "",
          "type": "address"
        }
      ],
      "name": "betsNo",
      "outputs": [
        {
          "internalType": "uint256",
          "name": "",
          "type": "uint256"
        }
      ],
      "stateMutability": "view",
      "type": "function"
    },
    {
      "inputs": [
        {
          "internalType": "uint256",
          "name": "",
          "type": "uint256"
        },
        {
          "internalType": "address",
          "name": "",
          "type": "address"
        }
      ],
      "name": "betsYes",
      "outputs": [
        {
          "internalType": "uint256",
          "name": "",
          "type": "uint256"
        }
      ],
      "stateMutability": "view",
      "type": "function"
    },
    {
      "inputs": [
        {
          "internalType": "string",
          "name": "question",
          "type": "string"
        },
        {
          "internalType": "uint256",
          "name": "durationSeconds",
          "type": "uint256"
        }
      ],
      "name": "createMarket",
      "outputs": [],
      "stateMutability": "nonpayable",
      "type": "function"
    },
    {
      "inputs": [
        {
          "internalType": "string",
          "name": "description",
          "type": "string"
        },
        {
          "internalType": "uint256",
          "name": "marketId",
          "type": "uint256"
        },
        {
          "internalType": "bool",
          "name": "executeYes",
          "type": "bool"
        }
      ],
      "name": "createProposal",
      "outputs": [],
      "stateMutability": "nonpayable",
      "type": "function"
    },
    {
      "inputs": [
        {
          "internalType": "uint256",
          "name": "proposalId",
          "type": "uint256"
        }
      ],
      "name": "executeProposal",
      "outputs": [],
      "stateMutability": "nonpayable",
      "type": "function"
    },
    {
      "inputs": [],
      "name": "getMarketsCount",
      "outputs": [
        {
          "internalType": "uint256",
          "name": "",
          "type": "uint256"
        }
      ],
      "stateMutability": "view",
      "type": "function"
    },
    {
      "inputs": [],
      "name": "getProposalsCount",
      "outputs": [
        {
          "internalType": "uint256",
          "name": "",
          "type": "uint256"
        }
      ],
      "stateMutability": "view",
      "type": "function"
    },
    {
      "inputs": [],
      "name": "govToken",
      "outputs": [
        {
          "internalType": "contract GovernanceToken",
          "name": "",
          "type": "address"
        }
      ],
      "stateMutability": "view",
      "type": "function"
    },
    {
      "inputs": [
        {
          "internalType": "uint256",
          "name": "",
          "type": "uint256"
        }
      ],
      "name": "markets",
      "outputs": [
        {
          "internalType": "string",
          "name": "question",
          "type": "string"
        },
        {
          "internalType": "uint256",
          "name": "endTime",
          "type": "uint256"
        },
        {
          "internalType": "uint256",
          "name": "yesPool",
          "type": "uint256"
        },
        {
          "internalType": "uint256",
          "name": "noPool",
          "type": "uint256"
        },
        {
          "internalType": "bool",
          "name": "resolved",
          "type": "bool"
        },
        {
          "internalType": "bool",
          "name": "outcome",
          "type": "bool"
        }
      ],
      "stateMutability": "view",
      "type": "function"
    },
    {
      "inputs": [
        {
          "internalType": "uint256",
          "name": "marketId",
          "type": "uint256"
        }
      ],
      "name": "placeBetNo",
      "outputs": [],
      "stateMutability": "payable",
      "type": "function"
    },
    {
      "inputs": [
        {
          "internalType": "uint256",
          "name": "marketId",
          "type": "uint256"
        }
      ],
      "name": "placeBetYes",
      "outputs": [],
      "stateMutability": "payable",
      "type": "function"
    },
    {
      "inputs": [],
      "name": "proposalDuration",
      "outputs": [
        {
          "internalType": "uint256",
          "name": "",
          "type": "uint256"
        }
      ],
      "stateMutability": "view",
      "type": "function"
    },
    {
      "inputs": [
        {
          "internalType": "uint256",
          "name": "",
          "type": "uint256"
        }
      ],
      "name": "proposals",
      "outputs": [
        {
          "internalType": "string",
          "name": "description",
          "type": "string"
        },
        {
          "internalType": "uint256",
          "name": "marketId",
          "type": "uint256"
        },
        {
          "internalType": "bool",
          "name": "executeYes",
          "type": "bool"
        },
        {
          "internalType": "uint256",
          "name": "votesFor",
          "type": "uint256"
        },
        {
          "internalType": "uint256",
          "name": "votesAgainst",
          "type": "uint256"
        },
        {
          "internalType": "bool",
          "name": "executed",
          "type": "bool"
        },
        {
          "internalType": "uint256",
          "name": "deadline",
          "type": "uint256"
        }
      ],
      "stateMutability": "view",
      "type": "function"
    },
    {
      "inputs": [
        {
          "internalType": "uint256",
          "name": "marketId",
          "type": "uint256"
        },
        {
          "internalType": "bool",
          "name": "outcome",
          "type": "bool"
        }
      ],
      "name": "resolveMarketPublic",
      "outputs": [],
      "stateMutability": "nonpayable",
      "type": "function"
    },
    {
      "inputs": [
        {
          "internalType": "uint256",
          "name": "proposalId",
          "type": "uint256"
        },
        {
          "internalType": "bool",
          "name": "support",
          "type": "bool"
        }
      ],
      "name": "vote",
      "outputs": [],
      "stateMutability": "nonpayable",
      "type": "function"
    },
    {
      "inputs": [
        {
          "internalType": "uint256",
          "name": "marketId",
          "type": "uint256"
        }
      ],
      "name": "withdrawWinnings",
      "outputs": [],
      "stateMutability": "nonpayable",
      "type": "function"
    }
  ],
  "bytecode": "0x6080604052620151806003553480156200001857600080fd5b50604051620039fe380380620039fe83398181016040528101906200003e91906200010b565b806040516200004d90620000bd565b6200005991906200014e565b604051809103906000f08015801562000076573d6000803e3d6000fd5b506000806101000a81548173ffffffffffffffffffffffffffffffffffffffff021916908373ffffffffffffffffffffffffffffffffffffffff160217905550506200016b565b61170580620022f983390190565b600080fd5b6000819050919050565b620000e581620000d0565b8114620000f157600080fd5b50565b6000815190506200010581620000da565b92915050565b600060208284031215620001245762000123620000cb565b5b60006200013484828501620000f4565b91505092915050565b6200014881620000d0565b82525050565b60006020820190506200016560008301846200013d565b92915050565b61217e806200017b6000396000f3fe6080604052600436106100f35760003560e01c80634b01b0e31161008a57806398f6e77c1161005957806398f6e77c1461032e578063ac75462b1461034a578063b1283e7714610366578063c9d27afe146103a8576100f3565b80634b01b0e31461028857806357c7aac3146102b1578063883c84c1146102da57806398e527d314610303576100f3565b806314794702116100c657806314794702146101cc57806327fa35c3146101f55780633010996214610220578063442cd5551461024b576100f3565b8063013cf08b146100f857806305268cff1461013b5780630939fc83146101665780630d61b519146101a3575b600080fd5b34801561010457600080fd5b5061011f600480360381019061011a9190611298565b6103d1565b604051610132979695949392919061137f565b60405180910390f35b34801561014757600080fd5b506101506104c5565b60405161015d9190611474565b60405180910390f35b34801561017257600080fd5b5061018d600480360381019061018891906114cd565b6104e9565b60405161019a919061150d565b60405180910390f35b3480156101af57600080fd5b506101ca60048036038101906101c59190611298565b61050e565b005b3480156101d857600080fd5b506101f360048036038101906101ee9190611298565b61061e565b005b34801561020157600080fd5b5061020a6109b9565b604051610217919061150d565b60405180910390f35b34801561022c57600080fd5b506102356109c6565b604051610242919061150d565b60405180910390f35b34801561025757600080fd5b50610272600480360381019061026d91906114cd565b6109cc565b60405161027f919061150d565b60405180910390f35b34801561029457600080fd5b506102af60048036038101906102aa9190611689565b6109f1565b005b3480156102bd57600080fd5b506102d860048036038101906102d391906116f8565b610aca565b005b3480156102e657600080fd5b5061030160048036038101906102fc9190611738565b610ad8565b005b34801561030f57600080fd5b50610318610bbd565b604051610325919061150d565b60405180910390f35b61034860048036038101906103439190611298565b610bca565b005b610364600480360381019061035f9190611298565b610cd7565b005b34801561037257600080fd5b5061038d60048036038101906103889190611298565b610de4565b60405161039f96959493929190611794565b60405180910390f35b3480156103b457600080fd5b506103cf60048036038101906103ca91906116f8565b610ed2565b005b600281815481106103e157600080fd5b90600052602060002090600802016000915090508060000180546104049061182b565b80601f01602080910402602001604051908101604052809291908181526020018280546104309061182b565b801561047d5780601f106104525761010080835404028352916020019161047d565b820191906000526020600020905b81548152906001019060200180831161046057829003601f168201915b5050505050908060010154908060020160009054906101000a900460ff16908060030154908060040154908060050160009054906101000a900460ff16908060060154905087565b60008054906101000a900473ffffffffffffffffffffffffffffffffffffffff1681565b6004602052816000526040600020602052806000526040600020600091509150505481565b6000600282815481106105245761052361185c565b5b90600052602060002090600802019050806006015442101561057b576040517f08c379a0000000000000000000000000000000000000000000000000000000008152600401610572906118d7565b60405180910390fd5b8060050160009054906101000a900460ff16156105cd576040517f08c379a00000000000000000000000000000000000000000000000000000000081526004016105c490611943565b60405180910390fd5b8060040154816003015411156105fd576105fc81600101548260020160009054906101000a900460ff16611151565b5b60018160050160006101000a81548160ff0219169083151502179055505050565b6000600182815481106106345761063361185c565b5b906000526020600020906005020190508060040160009054906101000a900460ff16610695576040517f08c379a000000000000000000000000000000000000000000000000000000000815260040161068c906119af565b60405180910390fd5b60008082600201541480156106ae575060008260030154145b156106ee576040517f08c379a00000000000000000000000000000000000000000000000000000000081526004016106e590611a1b565b60405180910390fd5b8160040160019054906101000a900460ff161561083b5760006004600085815260200190815260200160002060003373ffffffffffffffffffffffffffffffffffffffff1673ffffffffffffffffffffffffffffffffffffffff1681526020019081526020016000205490506000811161079d576040517f08c379a000000000000000000000000000000000000000000000000000000000815260040161079490611a87565b60405180910390fd5b6000836003015411156107db5782600201548360030154826107bf9190611ad6565b6107c99190611b47565b816107d49190611b78565b91506107df565b8091505b60006004600086815260200190815260200160002060003373ffffffffffffffffffffffffffffffffffffffff1673ffffffffffffffffffffffffffffffffffffffff168152602001908152602001600020819055505061096d565b60006005600085815260200190815260200160002060003373ffffffffffffffffffffffffffffffffffffffff1673ffffffffffffffffffffffffffffffffffffffff168152602001908152602001600020549050600081116108d3576040517f08c379a00000000000000000000000000000000000000000000000000000000081526004016108ca90611a87565b60405180910390fd5b6000836002015411156109115782600301548360020154826108f59190611ad6565b6108ff9190611b47565b8161090a9190611b78565b9150610915565b8091505b60006005600086815260200190815260200160002060003373ffffffffffffffffffffffffffffffffffffffff1673ffffffffffffffffffffffffffffffffffffffff16815260200190815260200160002081905550505b3373ffffffffffffffffffffffffffffffffffffffff166108fc829081150290604051600060405180830381858888f193505050501580156109b3573d6000803e3d6000fd5b50505050565b6000600180549050905090565b60035481565b6005602052816000526040600020602052806000526040600020600091509150505481565b600260018160018154018082558091505003906000526020600020905050600060026001600280549050610a259190611bac565b81548110610a3657610a3561185c565b5b9060005260206000209060080201905083816000019081610a579190611d82565b50828160010181905550818160020160006101000a81548160ff021916908315150217905550600081600301819055506000816004018190555060008160050160006101000a81548160ff02191690831515021790555060035442610abc9190611b78565b816006018190555050505050565b610ad48282611151565b5050565b60016040518060c001604052808481526020018342610af79190611b78565b815260200160008152602001600081526020016000151581526020016000151581525090806001815401808255809150506001900390600052602060002090600502016000909190919091506000820151816000019081610b589190611d82565b5060208201518160010155604082015181600201556060820151816003015560808201518160040160006101000a81548160ff02191690831515021790555060a08201518160040160016101000a81548160ff02191690831515021790555050505050565b6000600280549050905090565b60018181548110610bde57610bdd61185c565b5b9060005260206000209060050201600101544210610c31576040517f08c379a0000000000000000000000000000000000000000000000000000000008152600401610c2890611ea0565b60405180910390fd5b346005600083815260200190815260200160002060003373ffffffffffffffffffffffffffffffffffffffff1673ffffffffffffffffffffffffffffffffffffffff1681526020019081526020016000206000828254610c919190611b78565b925050819055503460018281548110610cad57610cac61185c565b5b90600052602060002090600502016003016000828254610ccd9190611b78565b9250508190555050565b60018181548110610ceb57610cea61185c565b5b9060005260206000209060050201600101544210610d3e576040517f08c379a0000000000000000000000000000000000000000000000000000000008152600401610d3590611ea0565b60405180910390fd5b346004600083815260200190815260200160002060003373ffffffffffffffffffffffffffffffffffffffff1673ffffffffffffffffffffffffffffffffffffffff1681526020019081526020016000206000828254610d9e9190611b78565b925050819055503460018281548110610dba57610db961185c565b5b90600052602060002090600502016002016000828254610dda9190611b78565b9250508190555050565b60018181548110610df457600080fd5b9060005260206000209060050201600091509050806000018054610e179061182b565b80601f0160208091040260200160405190810160405280929190818152602001828054610e439061182b565b8015610e905780601f10610e6557610100808354040283529160200191610e90565b820191906000526020600020905b815481529060010190602001808311610e7357829003601f168201915b5050505050908060010154908060020154908060030154908060040160009054906101000a900460ff16908060040160019054906101000a900460ff16905086565b600060028381548110610ee857610ee761185c565b5b9060005260206000209060080201905080600601544210610f3e576040517f08c379a0000000000000000000000000000000000000000000000000000000008152600401610f3590611f0c565b60405180910390fd5b8060070160003373ffffffffffffffffffffffffffffffffffffffff1673ffffffffffffffffffffffffffffffffffffffff16815260200190815260200160002060009054906101000a900460ff1615610fcd576040517f08c379a0000000000000000000000000000000000000000000000000000000008152600401610fc490611f78565b60405180910390fd5b60008060009054906101000a900473ffffffffffffffffffffffffffffffffffffffff1673ffffffffffffffffffffffffffffffffffffffff166370a08231336040518263ffffffff1660e01b81526004016110299190611fa7565b602060405180830381865afa158015611046573d6000803e3d6000fd5b505050506040513d601f19601f8201168201806040525081019061106a9190611fd7565b9050600081116110af576040517f08c379a00000000000000000000000000000000000000000000000000000000081526004016110a690612050565b60405180910390fd5b82156110d557808260030160008282546110c99190611b78565b925050819055506110f1565b808260040160008282546110e99190611b78565b925050819055505b60018260070160003373ffffffffffffffffffffffffffffffffffffffff1673ffffffffffffffffffffffffffffffffffffffff16815260200190815260200160002060006101000a81548160ff02191690831515021790555050505050565b6000600183815481106111675761116661185c565b5b9060005260206000209060050201905080600101544210156111be576040517f08c379a00000000000000000000000000000000000000000000000000000000081526004016111b5906120bc565b60405180910390fd5b8060040160009054906101000a900460ff1615611210576040517f08c379a000000000000000000000000000000000000000000000000000000000815260040161120790612128565b60405180910390fd5b60018160040160006101000a81548160ff021916908315150217905550818160040160016101000a81548160ff021916908315150217905550505050565b6000604051905090565b600080fd5b600080fd5b6000819050919050565b61127581611262565b811461128057600080fd5b50565b6000813590506112928161126c565b92915050565b6000602082840312156112ae576112ad611258565b5b60006112bc84828501611283565b91505092915050565b600081519050919050565b600082825260208201905092915050565b60005b838110156112ff5780820151818401526020810190506112e4565b60008484015250505050565b6000601f19601f8301169050919050565b6000611327826112c5565b61133181856112d0565b93506113418185602086016112e1565b61134a8161130b565b840191505092915050565b61135e81611262565b82525050565b60008115159050919050565b61137981611364565b82525050565b600060e0820190508181036000830152611399818a61131c565b90506113a86020830189611355565b6113b56040830188611370565b6113c26060830187611355565b6113cf6080830186611355565b6113dc60a0830185611370565b6113e960c0830184611355565b98975050505050505050565b600073ffffffffffffffffffffffffffffffffffffffff82169050919050565b6000819050919050565b600061143a611435611430846113f5565b611415565b6113f5565b9050919050565b600061144c8261141f565b9050919050565b600061145e82611441565b9050919050565b61146e81611453565b82525050565b60006020820190506114896000830184611465565b92915050565b600061149a826113f5565b9050919050565b6114aa8161148f565b81146114b557600080fd5b50565b6000813590506114c7816114a1565b92915050565b600080604083850312156114e4576114e3611258565b5b60006114f285828601611283565b9250506020611503858286016114b8565b9150509250929050565b60006020820190506115226000830184611355565b92915050565b600080fd5b600080fd5b7f4e487b7100000000000000000000000000000000000000000000000000000000600052604160045260246000fd5b61156a8261130b565b810181811067ffffffffffffffff8211171561158957611588611532565b5b80604052505050565b600061159c61124e565b90506115a88282611561565b919050565b600067ffffffffffffffff8211156115c8576115c7611532565b5b6115d18261130b565b9050602081019050919050565b82818337600083830152505050565b60006116006115fb846115ad565b611592565b90508281526020810184848401111561161c5761161b61152d565b5b6116278482856115de565b509392505050565b600082601f83011261164457611643611528565b5b81356116548482602086016115ed565b91505092915050565b61166681611364565b811461167157600080fd5b50565b6000813590506116838161165d565b92915050565b6000806000606084860312156116a2576116a1611258565b5b600084013567ffffffffffffffff8111156116c0576116bf61125d565b5b6116cc8682870161162f565b93505060206116dd86828701611283565b92505060406116ee86828701611674565b9150509250925092565b6000806040838503121561170f5761170e611258565b5b600061171d85828601611283565b925050602061172e85828601611674565b9150509250929050565b6000806040838503121561174f5761174e611258565b5b600083013567ffffffffffffffff81111561176d5761176c61125d565b5b6117798582860161162f565b925050602061178a85828601611283565b9150509250929050565b600060c08201905081810360008301526117ae818961131c565b90506117bd6020830188611355565b6117ca6040830187611355565b6117d76060830186611355565b6117e46080830185611370565b6117f160a0830184611370565b979650505050505050565b7f4e487b7100000000000000000000000000000000000000000000000000000000600052602260045260246000fd5b6000600282049050600182168061184357607f821691505b602082108103611856576118556117fc565b5b50919050565b7f4e487b7100000000000000000000000000000000000000000000000000000000600052603260045260246000fd5b7f50726f706f73616c206e6f7420656e6465640000000000000000000000000000600082015250565b60006118c16012836112d0565b91506118cc8261188b565b602082019050919050565b600060208201905081810360008301526118f0816118b4565b9050919050565b7f416c726561647920657865637574656400000000000000000000000000000000600082015250565b600061192d6010836112d0565b9150611938826118f7565b602082019050919050565b6000602082019050818103600083015261195c81611920565b9050919050565b7f4d61726b6574206e6f74207265736f6c76656400000000000000000000000000600082015250565b60006119996013836112d0565b91506119a482611963565b602082019050919050565b600060208201905081810360008301526119c88161198c565b9050919050565b7f4e6f206265747320696e206d61726b6574000000000000000000000000000000600082015250565b6000611a056011836112d0565b9150611a10826119cf565b602082019050919050565b60006020820190508181036000830152611a34816119f8565b9050919050565b7f4e6f2077696e6e696e6700000000000000000000000000000000000000000000600082015250565b6000611a71600a836112d0565b9150611a7c82611a3b565b602082019050919050565b60006020820190508181036000830152611aa081611a64565b9050919050565b7f4e487b7100000000000000000000000000000000000000000000000000000000600052601160045260246000fd5b6000611ae182611262565b9150611aec83611262565b9250828202611afa81611262565b91508282048414831517611b1157611b10611aa7565b5b5092915050565b7f4e487b7100000000000000000000000000000000000000000000000000000000600052601260045260246000fd5b6000611b5282611262565b9150611b5d83611262565b925082611b6d57611b6c611b18565b5b828204905092915050565b6000611b8382611262565b9150611b8e83611262565b9250828201905080821115611ba657611ba5611aa7565b5b92915050565b6000611bb782611262565b9150611bc283611262565b9250828203905081811115611bda57611bd9611aa7565b5b92915050565b60008190508160005260206000209050919050565b60006020601f8301049050919050565b600082821b905092915050565b600060088302611c427fffffffffffffffffffffffffffffffffffffffffffffffffffffffffffffffff82611c05565b611c4c8683611c05565b95508019841693508086168417925050509392505050565b6000611c7f611c7a611c7584611262565b611415565b611262565b9050919050565b6000819050919050565b611c9983611c64565b611cad611ca582611c86565b848454611c12565b825550505050565b600090565b611cc2611cb5565b611ccd818484611c90565b505050565b5b81811015611cf157611ce6600082611cba565b600181019050611cd3565b5050565b601f821115611d3657611d0781611be0565b611d1084611bf5565b81016020851015611d1f578190505b611d33611d2b85611bf5565b830182611cd2565b50505b505050565b600082821c905092915050565b6000611d5960001984600802611d3b565b1980831691505092915050565b6000611d728383611d48565b9150826002028217905092915050565b611d8b826112c5565b67ffffffffffffffff811115611da457611da3611532565b5b611dae825461182b565b611db9828285611cf5565b600060209050601f831160018114611dec5760008415611dda578287015190505b611de48582611d66565b865550611e4c565b601f198416611dfa86611be0565b60005b82811015611e2257848901518255600182019150602085019450602081019050611dfd565b86831015611e3f5784890151611e3b601f891682611d48565b8355505b6001600288020188555050505b505050505050565b7f4d61726b657420636c6f73656400000000000000000000000000000000000000600082015250565b6000611e8a600d836112d0565b9150611e9582611e54565b602082019050919050565b60006020820190508181036000830152611eb981611e7d565b9050919050565b7f50726f706f73616c20656e646564000000000000000000000000000000000000600082015250565b6000611ef6600e836112d0565b9150611f0182611ec0565b602082019050919050565b60006020820190508181036000830152611f2581611ee9565b9050919050565b7f416c726561647920766f74656400000000000000000000000000000000000000600082015250565b6000611f62600d836112d0565b9150611f6d82611f2c565b602082019050919050565b60006020820190508181036000830152611f9181611f55565b9050919050565b611fa18161148f565b82525050565b6000602082019050611fbc6000830184611f98565b92915050565b600081519050611fd18161126c565b92915050565b600060208284031215611fed57611fec611258565b5b6000611ffb84828501611fc2565b91505092915050565b7f4e6f20766f74696e6720706f7765720000000000000000000000000000000000600082015250565b600061203a600f836112d0565b915061204582612004565b602082019050919050565b600060208201905081810360008301526120698161202d565b9050919050565b7f4d61726b6574206e6f7420656e64656400000000000000000000000000000000600082015250565b60006120a66010836112d0565b91506120b182612070565b602082019050919050565b600060208201905081810360008301526120d581612099565b9050919050565b7f416c7265616479207265736f6c76656400000000000000000000000000000000600082015250565b60006121126010836112d0565b915061211d826120dc565b602082019050919050565b6000602082019050818103600083015261214181612105565b905091905056fea26469706673582212200471a3888cebdfb44bd9ff3bc2ddf03f849f374b7e5e93295a5192144e29a3d264736f6c6343000814003360806040523480156200001157600080fd5b5060405162001705380380620017058339818101604052810190620000379190620003df565b6040518060400160405280600881526020017f476f76546f6b656e0000000000000000000000000000000000000000000000008152506040518060400160405280600381526020017f474f5600000000000000000000000000000000000000000000000000000000008152508160039081620000b4919062000681565b508060049081620000c6919062000681565b505050620000db3382620000e260201b60201c565b506200089f565b600073ffffffffffffffffffffffffffffffffffffffff168273ffffffffffffffffffffffffffffffffffffffff1603620001575760006040517fec442f050000000000000000000000000000000000000000000000000000000081526004016200014e9190620007ad565b60405180910390fd5b6200016b600083836200016f60201b60201c565b5050565b600073ffffffffffffffffffffffffffffffffffffffff168373ffffffffffffffffffffffffffffffffffffffff1603620001c5578060026000828254620001b89190620007f9565b925050819055506200029b565b60008060008573ffffffffffffffffffffffffffffffffffffffff1673ffffffffffffffffffffffffffffffffffffffff1681526020019081526020016000205490508181101562000254578381836040517fe450d38c0000000000000000000000000000000000000000000000000000000081526004016200024b9392919062000845565b60405180910390fd5b8181036000808673ffffffffffffffffffffffffffffffffffffffff1673ffffffffffffffffffffffffffffffffffffffff16815260200190815260200160002081905550505b600073ffffffffffffffffffffffffffffffffffffffff168273ffffffffffffffffffffffffffffffffffffffff1603620002e6578060026000828254039250508190555062000333565b806000808473ffffffffffffffffffffffffffffffffffffffff1673ffffffffffffffffffffffffffffffffffffffff168152602001908152602001600020600082825401925050819055505b8173ffffffffffffffffffffffffffffffffffffffff168373ffffffffffffffffffffffffffffffffffffffff167fddf252ad1be2c89b69c2b068fc378daa952ba7f163c4a11628f55a4df523b3ef8360405162000392919062000882565b60405180910390a3505050565b600080fd5b6000819050919050565b620003b981620003a4565b8114620003c557600080fd5b50565b600081519050620003d981620003ae565b92915050565b600060208284031215620003f857620003f76200039f565b5b60006200040884828501620003c8565b91505092915050565b600081519050919050565b7f4e487b7100000000000000000000000000000000000000000000000000000000600052604160045260246000fd5b7f4e487b7100000000000000000000000000000000000000000000000000000000600052602260045260246000fd5b600060028204905060018216806200049357607f821691505b602082108103620004a957620004a86200044b565b5b50919050565b60008190508160005260206000209050919050565b60006020601f8301049050919050565b600082821b905092915050565b600060088302620005137fffffffffffffffffffffffffffffffffffffffffffffffffffffffffffffffff82620004d4565b6200051f8683620004d4565b95508019841693508086168417925050509392505050565b6000819050919050565b6000620005626200055c6200055684620003a4565b62000537565b620003a4565b9050919050565b6000819050919050565b6200057e8362000541565b620005966200058d8262000569565b848454620004e1565b825550505050565b600090565b620005ad6200059e565b620005ba81848462000573565b505050565b5b81811015620005e257620005d6600082620005a3565b600181019050620005c0565b5050565b601f8211156200063157620005fb81620004af565b6200060684620004c4565b8101602085101562000616578190505b6200062e6200062585620004c4565b830182620005bf565b50505b505050565b600082821c905092915050565b6000620006566000198460080262000636565b1980831691505092915050565b600062000671838362000643565b9150826002028217905092915050565b6200068c8262000411565b67ffffffffffffffff811115620006a857620006a76200041c565b5b620006b482546200047a565b620006c1828285620005e6565b600060209050601f831160018114620006f95760008415620006e4578287015190505b620006f0858262000663565b86555062000760565b601f1984166200070986620004af565b60005b8281101562000733578489015182556001820191506020850194506020810190506200070c565b868310156200075357848901516200074f601f89168262000643565b8355505b6001600288020188555050505b505050505050565b600073ffffffffffffffffffffffffffffffffffffffff82169050919050565b6000620007958262000768565b9050919050565b620007a78162000788565b82525050565b6000602082019050620007c460008301846200079c565b92915050565b7f4e487b7100000000000000000000000000000000000000000000000000000000600052601160045260246000fd5b60006200080682620003a4565b91506200081383620003a4565b92508282019050808211156200082e576200082d620007ca565b5b92915050565b6200083f81620003a4565b82525050565b60006060820190506200085c60008301866200079c565b6200086b602083018562000834565b6200087a604083018462000834565b949350505050565b600060208201905062000899600083018462000834565b92915050565b610e5680620008af6000396000f3fe608060405234801561001057600080fd5b50600436106100935760003560e01c8063313ce56711610066578063313ce5671461013457806370a082311461015257806395d89b4114610182578063a9059cbb146101a0578063dd62ed3e146101d057610093565b806306fdde0314610098578063095ea7b3146100b657806318160ddd146100e657806323b872dd14610104575b600080fd5b6100a0610200565b6040516100ad9190610aaa565b60405180910390f35b6100d060048036038101906100cb9190610b65565b610292565b6040516100dd9190610bc0565b60405180910390f35b6100ee6102b5565b6040516100fb9190610bea565b60405180910390f35b61011e60048036038101906101199190610c05565b6102bf565b60405161012b9190610bc0565b60405180910390f35b61013c6102ee565b6040516101499190610c74565b60405180910390f35b61016c60048036038101906101679190610c8f565b6102f7565b6040516101799190610bea565b60405180910390f35b61018a61033f565b6040516101979190610aaa565b60405180910390f35b6101ba60048036038101906101b59190610b65565b6103d1565b6040516101c79190610bc0565b60405180910390f35b6101ea60048036038101906101e59190610cbc565b6103f4565b6040516101f79190610bea565b60405180910390f35b60606003805461020f90610d2b565b80601f016020809104026020016040519081016040528092919081815260200182805461023b90610d2b565b80156102885780601f1061025d57610100808354040283529160200191610288565b820191906000526020600020905b81548152906001019060200180831161026b57829003601f168201915b5050505050905090565b60008061029d61047b565b90506102aa818585610483565b600191505092915050565b6000600254905090565b6000806102ca61047b565b90506102d7858285610495565b6102e285858561052a565b60019150509392505050565b60006012905090565b60008060008373ffffffffffffffffffffffffffffffffffffffff1673ffffffffffffffffffffffffffffffffffffffff168152602001908152602001600020549050919050565b60606004805461034e90610d2b565b80601f016020809104026020016040519081016040528092919081815260200182805461037a90610d2b565b80156103c75780601f1061039c576101008083540402835291602001916103c7565b820191906000526020600020905b8154815290600101906020018083116103aa57829003601f168201915b5050505050905090565b6000806103dc61047b565b90506103e981858561052a565b600191505092915050565b6000600160008473ffffffffffffffffffffffffffffffffffffffff1673ffffffffffffffffffffffffffffffffffffffff16815260200190815260200160002060008373ffffffffffffffffffffffffffffffffffffffff1673ffffffffffffffffffffffffffffffffffffffff16815260200190815260200160002054905092915050565b600033905090565b610490838383600161061e565b505050565b60006104a184846103f4565b90507fffffffffffffffffffffffffffffffffffffffffffffffffffffffffffffffff8110156105245781811015610514578281836040517ffb8f41b200000000000000000000000000000000000000000000000000000000815260040161050b93929190610d6b565b60405180910390fd5b6105238484848403600061061e565b5b50505050565b600073ffffffffffffffffffffffffffffffffffffffff168373ffffffffffffffffffffffffffffffffffffffff160361059c5760006040517f96c6fd1e0000000000000000000000000000000000000000000000000000000081526004016105939190610da2565b60405180910390fd5b600073ffffffffffffffffffffffffffffffffffffffff168273ffffffffffffffffffffffffffffffffffffffff160361060e5760006040517fec442f050000000000000000000000000000000000000000000000000000000081526004016106059190610da2565b60405180910390fd5b6106198383836107f5565b505050565b600073ffffffffffffffffffffffffffffffffffffffff168473ffffffffffffffffffffffffffffffffffffffff16036106905760006040517fe602df050000000000000000000000000000000000000000000000000000000081526004016106879190610da2565b60405180910390fd5b600073ffffffffffffffffffffffffffffffffffffffff168373ffffffffffffffffffffffffffffffffffffffff16036107025760006040517f94280d620000000000000000000000000000000000000000000000000000000081526004016106f99190610da2565b60405180910390fd5b81600160008673ffffffffffffffffffffffffffffffffffffffff1673ffffffffffffffffffffffffffffffffffffffff16815260200190815260200160002060008573ffffffffffffffffffffffffffffffffffffffff1673ffffffffffffffffffffffffffffffffffffffff1681526020019081526020016000208190555080156107ef578273ffffffffffffffffffffffffffffffffffffffff168473ffffffffffffffffffffffffffffffffffffffff167f8c5be1e5ebec7d5bd14f71427d1e84f3dd0314c0f7b2291e5b200ac8c7c3b925846040516107e69190610bea565b60405180910390a35b50505050565b600073ffffffffffffffffffffffffffffffffffffffff168373ffffffffffffffffffffffffffffffffffffffff160361084757806002600082825461083b9190610dec565b9250508190555061091a565b60008060008573ffffffffffffffffffffffffffffffffffffffff1673ffffffffffffffffffffffffffffffffffffffff168152602001908152602001600020549050818110156108d3578381836040517fe450d38c0000000000000000000000000000000000000000000000000000000081526004016108ca93929190610d6b565b60405180910390fd5b8181036000808673ffffffffffffffffffffffffffffffffffffffff1673ffffffffffffffffffffffffffffffffffffffff16815260200190815260200160002081905550505b600073ffffffffffffffffffffffffffffffffffffffff168273ffffffffffffffffffffffffffffffffffffffff160361096357806002600082825403925050819055506109b0565b806000808473ffffffffffffffffffffffffffffffffffffffff1673ffffffffffffffffffffffffffffffffffffffff168152602001908152602001600020600082825401925050819055505b8173ffffffffffffffffffffffffffffffffffffffff168373ffffffffffffffffffffffffffffffffffffffff167fddf252ad1be2c89b69c2b068fc378daa952ba7f163c4a11628f55a4df523b3ef83604051610a0d9190610bea565b60405180910390a3505050565b600081519050919050565b600082825260208201905092915050565b60005b83811015610a54578082015181840152602081019050610a39565b60008484015250505050565b6000601f19601f8301169050919050565b6000610a7c82610a1a565b610a868185610a25565b9350610a96818560208601610a36565b610a9f81610a60565b840191505092915050565b60006020820190508181036000830152610ac48184610a71565b905092915050565b600080fd5b600073ffffffffffffffffffffffffffffffffffffffff82169050919050565b6000610afc82610ad1565b9050919050565b610b0c81610af1565b8114610b1757600080fd5b50565b600081359050610b2981610b03565b92915050565b6000819050919050565b610b4281610b2f565b8114610b4d57600080fd5b50565b600081359050610b5f81610b39565b92915050565b60008060408385031215610b7c57610b7b610acc565b5b6000610b8a85828601610b1a565b9250506020610b9b85828601610b50565b9150509250929050565b60008115159050919050565b610bba81610ba5565b82525050565b6000602082019050610bd56000830184610bb1565b92915050565b610be481610b2f565b82525050565b6000602082019050610bff6000830184610bdb565b92915050565b600080600060608486031215610c1e57610c1d610acc565b5b6000610c2c86828701610b1a565b9350506020610c3d86828701610b1a565b9250506040610c4e86828701610b50565b9150509250925092565b600060ff82169050919050565b610c6e81610c58565b82525050565b6000602082019050610c896000830184610c65565b92915050565b600060208284031215610ca557610ca4610acc565b5b6000610cb384828501610b1a565b91505092915050565b60008060408385031215610cd357610cd2610acc565b5b6000610ce185828601610b1a565b9250506020610cf285828601610b1a565b9150509250929050565b7f4e487b7100000000000000000000000000000000000000000000000000000000600052602260045260246000fd5b60006002820490506001821680610d4357607f821691505b602082108103610d5657610d55610cfc565b5b50919050565b610d6581610af1565b82525050565b6000606082019050610d806000830186610d5c565b610d8d6020830185610bdb565b610d9a6040830184610bdb565b949350505050565b6000602082019050610db76000830184610d5c565b92915050565b7f4e487b7100000000000000000000000000000000000000000000000000000000600052601160045260246000fd5b6000610df782610b2f565b9150610e0283610b2f565b9250828201905080821115610e1a57610e19610dbd565b5b9291505056fea26469706673582212204f6d89ad609750ca9a95ef42848613facd93c142b52d67cbfebdb64a050d45bb64736f6c63430008140033",
  "linkReferences": {},
  "deployedLinkReferences": {}
}